{
  "address": "0xC35BaAf9Ecf96C55ecF11DF18B158fB4c6a646a6",
  "abi": [
    {
      "inputs": [],
      "stateMutability": "nonpayable",
      "type": "constructor"
    },
    {
      "inputs": [],
      "name": "FailedDeployment",
      "type": "error"
    },
    {
      "inputs": [],
      "name": "FeeWithdrawalFailed",
      "type": "error"
    },
    {
      "inputs": [],
      "name": "InitializationFailed",
      "type": "error"
    },
    {
      "inputs": [
        {
          "internalType": "uint256",
          "name": "balance",
          "type": "uint256"
        },
        {
          "internalType": "uint256",
          "name": "needed",
          "type": "uint256"
        }
      ],
      "name": "InsufficientBalance",
      "type": "error"
    },
    {
      "inputs": [
        {
          "internalType": "uint256",
          "name": "provided",
          "type": "uint256"
        },
        {
          "internalType": "uint256",
          "name": "required",
          "type": "uint256"
        }
      ],
      "name": "InsufficientDeploymentFee",
      "type": "error"
    },
    {
      "inputs": [],
      "name": "InvalidDeploymentParameters",
      "type": "error"
    },
    {
      "inputs": [],
      "name": "InvalidInitialization",
      "type": "error"
    },
    {
      "inputs": [],
      "name": "NoFeesToWithdraw",
      "type": "error"
    },
    {
      "inputs": [],
      "name": "NotInitializing",
      "type": "error"
    },
    {
      "inputs": [
        {
          "internalType": "address",
          "name": "owner",
          "type": "address"
        }
      ],
      "name": "OwnableInvalidOwner",
      "type": "error"
    },
    {
      "inputs": [
        {
          "internalType": "address",
          "name": "account",
          "type": "address"
        }
      ],
      "name": "OwnableUnauthorizedAccount",
      "type": "error"
    },
    {
      "inputs": [],
      "name": "ReentrancyGuardReentrantCall",
      "type": "error"
    },
    {
      "inputs": [],
      "name": "RefundFailed",
      "type": "error"
    },
    {
      "inputs": [],
      "name": "TokenMintingFailed",
      "type": "error"
    },
    {
      "inputs": [],
      "name": "Unauthorized",
      "type": "error"
    },
    {
      "inputs": [],
      "name": "ZeroAddress",
      "type": "error"
    },
    {
      "anonymous": false,
      "inputs": [
        {
          "indexed": false,
          "internalType": "uint256",
          "name": "virtualEth",
          "type": "uint256"
        },
        {
          "indexed": false,
          "internalType": "uint256",
          "name": "bondingTarget",
          "type": "uint256"
        },
        {
          "indexed": false,
          "internalType": "uint256",
          "name": "minContribution",
          "type": "uint256"
        },
        {
          "indexed": false,
          "internalType": "uint24",
          "name": "poolFee",
          "type": "uint24"
        }
      ],
      "name": "BondingCurveSettingsUpdated",
      "type": "event"
    },
    {
      "anonymous": false,
      "inputs": [
        {
          "indexed": true,
          "internalType": "address",
          "name": "bondingCurveAddress",
          "type": "address"
        },
        {
          "indexed": true,
          "internalType": "address",
          "name": "tokenAddress",
          "type": "address"
        },
        {
          "indexed": true,
          "internalType": "address",
          "name": "owner",
          "type": "address"
        },
        {
          "indexed": false,
          "internalType": "string",
          "name": "name",
          "type": "string"
        },
        {
          "indexed": false,
          "internalType": "string",
          "name": "symbol",
          "type": "string"
        }
      ],
      "name": "BondingCurveSystemDeployed",
      "type": "event"
    },
    {
      "anonymous": false,
      "inputs": [
        {
          "indexed": false,
          "internalType": "uint256",
          "name": "oldFee",
          "type": "uint256"
        },
        {
          "indexed": false,
          "internalType": "uint256",
          "name": "newFee",
          "type": "uint256"
        }
      ],
      "name": "DeploymentFeeUpdated",
      "type": "event"
    },
    {
      "anonymous": false,
      "inputs": [
        {
          "indexed": true,
          "internalType": "address",
          "name": "recipient",
          "type": "address"
        },
        {
          "indexed": false,
          "internalType": "uint256",
          "name": "amount",
          "type": "uint256"
        }
      ],
      "name": "FeesWithdrawn",
      "type": "event"
    },
    {
      "anonymous": false,
      "inputs": [
        {
          "indexed": false,
          "internalType": "uint64",
          "name": "version",
          "type": "uint64"
        }
      ],
      "name": "Initialized",
      "type": "event"
    },
    {
      "anonymous": false,
      "inputs": [
        {
          "indexed": true,
          "internalType": "address",
          "name": "previousOwner",
          "type": "address"
        },
        {
          "indexed": true,
          "internalType": "address",
          "name": "newOwner",
          "type": "address"
        }
      ],
      "name": "OwnershipTransferStarted",
      "type": "event"
    },
    {
      "anonymous": false,
      "inputs": [
        {
          "indexed": true,
          "internalType": "address",
          "name": "previousOwner",
          "type": "address"
        },
        {
          "indexed": true,
          "internalType": "address",
          "name": "newOwner",
          "type": "address"
        }
      ],
      "name": "OwnershipTransferred",
      "type": "event"
    },
    {
      "inputs": [],
      "name": "acceptOwnership",
      "outputs": [],
      "stateMutability": "nonpayable",
      "type": "function"
    },
    {
      "inputs": [
        {
          "internalType": "string",
          "name": "name",
          "type": "string"
        },
        {
          "internalType": "string",
          "name": "symbol",
          "type": "string"
        }
      ],
      "name": "deployBondingCurveSystem",
      "outputs": [
        {
          "internalType": "address",
          "name": "tokenAddress",
          "type": "address"
        },
        {
          "internalType": "address",
          "name": "bondingCurveAddress",
          "type": "address"
        }
      ],
      "stateMutability": "payable",
      "type": "function"
    },
    {
      "inputs": [
        {
          "internalType": "address",
          "name": "token",
          "type": "address"
        }
      ],
      "name": "getBondingCurveForToken",
      "outputs": [
        {
          "internalType": "address",
          "name": "",
          "type": "address"
        }
      ],
      "stateMutability": "view",
      "type": "function"
    },
    {
      "inputs": [],
      "name": "getBondingCurveImplementation",
      "outputs": [
        {
          "internalType": "address",
          "name": "",
          "type": "address"
        }
      ],
      "stateMutability": "view",
      "type": "function"
    },
    {
      "inputs": [],
      "name": "getBondingCurveSettings",
      "outputs": [
        {
          "components": [
            {
              "internalType": "uint256",
              "name": "virtualEth",
              "type": "uint256"
            },
            {
              "internalType": "uint256",
              "name": "bondingTarget",
              "type": "uint256"
            },
            {
              "internalType": "uint256",
              "name": "minContribution",
              "type": "uint256"
            },
            {
              "internalType": "uint24",
              "name": "poolFee",
              "type": "uint24"
            },
            {
              "internalType": "uint24",
              "name": "sellFee",
              "type": "uint24"
            },
            {
              "internalType": "address",
              "name": "uniswapV3Factory",
              "type": "address"
            },
            {
              "internalType": "address",
              "name": "positionManager",
              "type": "address"
            },
            {
              "internalType": "address",
              "name": "weth",
              "type": "address"
            },
            {
              "internalType": "address",
              "name": "feeTo",
              "type": "address"
            }
          ],
          "internalType": "struct IFactory.BondingCurveSettings",
          "name": "",
          "type": "tuple"
        }
      ],
      "stateMutability": "view",
      "type": "function"
    },
    {
      "inputs": [],
      "name": "getDeploymentFee",
      "outputs": [
        {
          "internalType": "uint256",
          "name": "",
          "type": "uint256"
        }
      ],
      "stateMutability": "view",
      "type": "function"
    },
    {
      "inputs": [],
      "name": "getLockContract",
      "outputs": [
        {
          "internalType": "address",
          "name": "",
          "type": "address"
        }
      ],
      "stateMutability": "view",
      "type": "function"
    },
    {
      "inputs": [
        {
          "internalType": "address",
          "name": "bondingCurve",
          "type": "address"
        }
      ],
      "name": "getTokenForBondingCurve",
      "outputs": [
        {
          "internalType": "address",
          "name": "",
          "type": "address"
        }
      ],
      "stateMutability": "view",
      "type": "function"
    },
    {
      "inputs": [],
      "name": "getTokenImplementation",
      "outputs": [
        {
          "internalType": "address",
          "name": "",
          "type": "address"
        }
      ],
      "stateMutability": "view",
      "type": "function"
    },
    {
      "inputs": [
        {
          "internalType": "uint256",
          "name": "factoryFees",
          "type": "uint256"
        },
        {
          "internalType": "address",
          "name": "owner",
          "type": "address"
        },
        {
          "internalType": "address",
          "name": "tokenImpl",
          "type": "address"
        },
        {
          "internalType": "address",
          "name": "bondingCurveImpl",
          "type": "address"
        },
        {
          "internalType": "address",
          "name": "lockContractAddr",
          "type": "address"
        },
        {
          "components": [
            {
              "internalType": "uint256",
              "name": "virtualEth",
              "type": "uint256"
            },
            {
              "internalType": "uint256",
              "name": "bondingTarget",
              "type": "uint256"
            },
            {
              "internalType": "uint256",
              "name": "minContribution",
              "type": "uint256"
            },
            {
              "internalType": "uint24",
              "name": "poolFee",
              "type": "uint24"
            },
            {
              "internalType": "uint24",
              "name": "sellFee",
              "type": "uint24"
            },
            {
              "internalType": "address",
              "name": "uniswapV3Factory",
              "type": "address"
            },
            {
              "internalType": "address",
              "name": "positionManager",
              "type": "address"
            },
            {
              "internalType": "address",
              "name": "weth",
              "type": "address"
            },
            {
              "internalType": "address",
              "name": "feeTo",
              "type": "address"
            }
          ],
          "internalType": "struct IFactory.BondingCurveSettings",
          "name": "initialSettings",
          "type": "tuple"
        }
      ],
      "name": "initialize",
      "outputs": [],
      "stateMutability": "nonpayable",
      "type": "function"
    },
    {
      "inputs": [],
      "name": "owner",
      "outputs": [
        {
          "internalType": "address",
          "name": "",
          "type": "address"
        }
      ],
      "stateMutability": "view",
      "type": "function"
    },
    {
      "inputs": [],
      "name": "pendingOwner",
      "outputs": [
        {
          "internalType": "address",
          "name": "",
          "type": "address"
        }
      ],
      "stateMutability": "view",
      "type": "function"
    },
    {
      "inputs": [],
      "name": "renounceOwnership",
      "outputs": [],
      "stateMutability": "nonpayable",
      "type": "function"
    },
    {
      "inputs": [
        {
          "internalType": "address",
          "name": "newOwner",
          "type": "address"
        }
      ],
      "name": "transferOwnership",
      "outputs": [],
      "stateMutability": "nonpayable",
      "type": "function"
    },
    {
      "inputs": [
        {
          "components": [
            {
              "internalType": "uint256",
              "name": "virtualEth",
              "type": "uint256"
            },
            {
              "internalType": "uint256",
              "name": "bondingTarget",
              "type": "uint256"
            },
            {
              "internalType": "uint256",
              "name": "minContribution",
              "type": "uint256"
            },
            {
              "internalType": "uint24",
              "name": "poolFee",
              "type": "uint24"
            },
            {
              "internalType": "uint24",
              "name": "sellFee",
              "type": "uint24"
            },
            {
              "internalType": "address",
              "name": "uniswapV3Factory",
              "type": "address"
            },
            {
              "internalType": "address",
              "name": "positionManager",
              "type": "address"
            },
            {
              "internalType": "address",
              "name": "weth",
              "type": "address"
            },
            {
              "internalType": "address",
              "name": "feeTo",
              "type": "address"
            }
          ],
          "internalType": "struct IFactory.BondingCurveSettings",
          "name": "newSettings",
          "type": "tuple"
        }
      ],
      "name": "updateBondingCurveSettings",
      "outputs": [],
      "stateMutability": "nonpayable",
      "type": "function"
    },
    {
      "inputs": [
        {
          "internalType": "uint256",
          "name": "newFee",
          "type": "uint256"
        }
      ],
      "name": "updateDeploymentFee",
      "outputs": [],
      "stateMutability": "nonpayable",
      "type": "function"
    },
    {
      "inputs": [
        {
          "internalType": "address",
          "name": "recipient",
          "type": "address"
        }
      ],
      "name": "withdrawFees",
      "outputs": [],
      "stateMutability": "nonpayable",
      "type": "function"
    },
    {
      "stateMutability": "payable",
      "type": "receive"
    }
  ],
  "transactionHash": "0x31788ed3298445116e7b0c1291ff06f3650936c123834ddcf11845fa5b5bd02b",
  "args": [],
  "numDeployments": 1,
  "solcInputHash": "fb8086b9a1f5010cba63e1b9987da803",
  "bytecode": "0x608060405234801561001057600080fd5b506114aa806100206000396000f3fe6080604052600436106101025760003560e01c80638da5cb5b11610095578063b2834bb111610064578063b2834bb114610374578063d0c05a92146103ad578063e30c3978146103cb578063f1f7c6fc146103e0578063f2fde38b146103fe57600080fd5b80638da5cb5b1461023f578063962710e714610254578063a15cd4a114610274578063a29056681461029457600080fd5b8063593726b6116100d1578063593726b6146101a6578063709bc7f3146101f7578063715018a61461021557806379ba50971461022a57600080fd5b8063164e68de1461010e57806346c549cc14610130578063499200db1461015357806355896f9c1461017357600080fd5b3661010957005b600080fd5b34801561011a57600080fd5b5061012e610129366004611023565b61041e565b005b34801561013c57600080fd5b506003546040519081526020015b60405180910390f35b34801561015f57600080fd5b5061012e61016e366004611047565b61052b565b6101866101813660046110a9565b610578565b604080516001600160a01b0393841681529290911660208301520161014a565b3480156101b257600080fd5b506101df6101c1366004611023565b6001600160a01b039081166000908152600c60205260409020541690565b6040516001600160a01b03909116815260200161014a565b34801561020357600080fd5b506000546001600160a01b03166101df565b34801561022157600080fd5b5061012e6109a9565b34801561023657600080fd5b5061012e6109bd565b34801561024b57600080fd5b506101df610a05565b34801561026057600080fd5b5061012e61026f36600461112e565b610a3a565b34801561028057600080fd5b5061012e61028f36600461114b565b610aba565b3480156102a057600080fd5b506103676040805161012081018252600080825260208201819052918101829052606081018290526080810182905260a0810182905260c0810182905260e08101829052610100810191909152506040805161012081018252600454815260055460208201526006549181019190915260075462ffffff8082166060840152630100000082041660808301526001600160a01b036601000000000000909104811660a0830152600854811660c0830152600954811660e0830152600a541661010082015290565b60405161014a91906111c2565b34801561038057600080fd5b506101df61038f366004611023565b6001600160a01b039081166000908152600b60205260409020541690565b3480156103b957600080fd5b506002546001600160a01b03166101df565b3480156103d757600080fd5b506101df610cc4565b3480156103ec57600080fd5b506001546001600160a01b03166101df565b34801561040a57600080fd5b5061012e610419366004611023565b610ced565b610426610d72565b6001600160a01b03811661044d5760405163d92e233d60e01b815260040160405180910390fd5b47600081900361047057604051630d00db4d60e31b815260040160405180910390fd5b6000826001600160a01b03168260405160006040518083038185875af1925050503d80600081146104bd576040519150601f19603f3d011682016040523d82523d6000602084013e6104c2565b606091505b50509050806104e357604051620b587d60e91b815260040160405180910390fd5b826001600160a01b03167fc0819c13be868895eb93e40eaceb96de976442fa1d404e5c55f14bb65a8c489a8360405161051e91815260200190565b60405180910390a2505050565b610533610d72565b600380549082905560408051828152602081018490527fbade80ae0982a2d3106c4f5afa708793d20a9d6441a6440011f99e9f69ad5f3c910160405180910390a15050565b600080610583610da4565b6003543410156105b857600354604051632e1932e360e11b815234600482015260248101919091526044015b60405180910390fd5b8415806105c3575082155b156105e1576040516308429e4760e31b815260040160405180910390fd5b6000546105f6906001600160a01b0316610dee565b91506000826001600160a01b03168787878760405160240161061b9493929190611294565b60408051601f198184030181529181526020820180516001600160e01b031663266c45bb60e11b1790525161065091906112c6565b6000604051808303816000865af19150503d806000811461068d576040519150601f19603f3d011682016040523d82523d6000602084013e610692565b606091505b50509050806106b457604051630337323560e31b815260040160405180910390fd5b6001546106c9906001600160a01b0316610dee565b6040516001600160a01b03808316602483015291935060009185169060440160408051601f198184030181529181526020820180516001600160e01b03166305a950c560e21b1790525161071d91906112c6565b6000604051808303816000865af19150503d806000811461075a576040519150601f19603f3d011682016040523d82523d6000602084013e61075f565b606091505b505090508061078157604051632907f5df60e11b815260040160405180910390fd5b6002546040516391d1c69360e01b81526001600160a01b03868116600480840191909152928116602483015233604483015291546064820152600554608482015260065460a482015260075462ffffff80821660c4840152601882901c1660e483015260301c821661010482015260085482166101248201526009548216610144820152600a548216610164820152908416906391d1c6939061018401600060405180830381600087803b15801561083857600080fd5b505af115801561084c573d6000803e3d6000fd5b5050506001600160a01b038086166000818152600b602090815260408083208054958a166001600160a01b031996871681179091558352600c909152902080549092161790555061089a3390565b6001600160a01b0316846001600160a01b0316846001600160a01b03167f3ef4c1f0529a2ee6b2e04f4f81ace41250f87a6d1ecc603d9168c55780c890fb8b8b8b8b6040516108ec9493929190611294565b60405180910390a460035434111561097557600354600090339061091090346112f5565b604051600081818185875af1925050503d806000811461094c576040519150601f19603f3d011682016040523d82523d6000602084013e610951565b606091505b505090508061097357604051633c31275160e21b815260040160405180910390fd5b505b50506109a060017f9b779b17422d0df92223018b32b4d1fa46e071723d6817e2486d003becc55f0055565b94509492505050565b6109b1610d72565b6109bb6000610e27565b565b33806109c7610cc4565b6001600160a01b0316146109f95760405163118cdaa760e01b81526001600160a01b03821660048201526024016105af565b610a0281610e27565b50565b6000807f9016d09d72d40fdae2fd8ceac6b6234c7706214fd39c1cd1e609a0528c1993005b546001600160a01b031692915050565b610a42610d72565b806004610a4f8282611361565b507f203ea8229b10954e64d53070f0a68e189e0c823de12ba254ad46f053bdf2d2d59050813560208301356040840135610a8f6080860160608701611457565b6040805194855260208501939093529183015262ffffff16606082015260800160405180910390a150565b7ff0c57e16840df040f15088dc2f81fe391c3923bec73e23a9662efc9c229c6a008054600160401b810460ff16159067ffffffffffffffff16600081158015610b005750825b905060008267ffffffffffffffff166001148015610b1d5750303b155b905081158015610b2b575080155b15610b495760405163f92ee8a960e01b815260040160405180910390fd5b845467ffffffffffffffff191660011785558315610b7357845460ff60401b1916600160401b1785555b6001600160a01b038a16610b9a5760405163d92e233d60e01b815260040160405180910390fd5b6001600160a01b038916610bc15760405163d92e233d60e01b815260040160405180910390fd5b6001600160a01b038816610be85760405163d92e233d60e01b815260040160405180910390fd5b6001600160a01b038716610c0f5760405163d92e233d60e01b815260040160405180910390fd5b610c188a610e63565b610c20610e74565b600080546001600160a01b03808c166001600160a01b031992831617909255600180548b841690831617905560028054928a1692909116919091179055856004610c6a8282611361565b505060038b90558315610cb757845460ff60401b19168555604051600181527fc7f505b2f371ae2175ee4913f4499e1f2633a7b5936321eed1cdaeb6115181d29060200160405180910390a15b5050505050505050505050565b6000807f237e158222e3e6968b72b9db0d8043aacf074ad9f650f0d1606b4d82ee432c00610a2a565b610cf5610d72565b7f237e158222e3e6968b72b9db0d8043aacf074ad9f650f0d1606b4d82ee432c0080546001600160a01b0319166001600160a01b0383169081178255610d39610a05565b6001600160a01b03167f38d16b8cac22d99fc7c124b9cd0de2d3fa1faef420bfe791d8c362d765e2270060405160405180910390a35050565b33610d7b610a05565b6001600160a01b0316146109bb5760405163118cdaa760e01b81523360048201526024016105af565b7f9b779b17422d0df92223018b32b4d1fa46e071723d6817e2486d003becc55f00805460011901610de857604051633ee5aeb560e01b815260040160405180910390fd5b60029055565b6000610dfb826000610e84565b92915050565b60017f9b779b17422d0df92223018b32b4d1fa46e071723d6817e2486d003becc55f0055565b7f237e158222e3e6968b72b9db0d8043aacf074ad9f650f0d1606b4d82ee432c0080546001600160a01b0319168155610e5f82610f1a565b5050565b610e6b610f8b565b610a0281610fd4565b610e7c610f8b565b6109bb611006565b600081471015610eb05760405163cf47918160e01b8152476004820152602481018390526044016105af565b763d602d80600a3d3981f3363d3d373d3d3d363d730000008360601b60e81c176000526e5af43d82803e903d91602b57fd5bf38360781b176020526037600983f090506001600160a01b038116610dfb5760405163b06ebf3d60e01b815260040160405180910390fd5b7f9016d09d72d40fdae2fd8ceac6b6234c7706214fd39c1cd1e609a0528c19930080546001600160a01b031981166001600160a01b03848116918217845560405192169182907f8be0079c531659141344cd1fd0a4f28419497f9722a3daafe3b4186f6b6457e090600090a3505050565b7ff0c57e16840df040f15088dc2f81fe391c3923bec73e23a9662efc9c229c6a0054600160401b900460ff166109bb57604051631afcd79f60e31b815260040160405180910390fd5b610fdc610f8b565b6001600160a01b0381166109f957604051631e4fbdf760e01b8152600060048201526024016105af565b610e01610f8b565b6001600160a01b0381168114610a0257600080fd5b60006020828403121561103557600080fd5b81356110408161100e565b9392505050565b60006020828403121561105957600080fd5b5035919050565b60008083601f84011261107257600080fd5b50813567ffffffffffffffff81111561108a57600080fd5b6020830191508360208285010111156110a257600080fd5b9250929050565b600080600080604085870312156110bf57600080fd5b843567ffffffffffffffff808211156110d757600080fd5b6110e388838901611060565b909650945060208701359150808211156110fc57600080fd5b5061110987828801611060565b95989497509550505050565b6000610120828403121561112857600080fd5b50919050565b6000610120828403121561114157600080fd5b6110408383611115565b6000806000806000806101c0878903121561116557600080fd5b8635955060208701356111778161100e565b945060408701356111878161100e565b935060608701356111978161100e565b925060808701356111a78161100e565b91506111b68860a08901611115565b90509295509295509295565b600061012082019050825182526020830151602083015260408301516040830152606083015162ffffff8082166060850152806080860151166080850152505060a083015161121c60a08401826001600160a01b03169052565b5060c083015161123760c08401826001600160a01b03169052565b5060e083015161125260e08401826001600160a01b03169052565b50610100928301516001600160a01b0316919092015290565b81835281816020850137506000828201602090810191909152601f909101601f19169091010190565b6040815260006112a860408301868861126b565b82810360208401526112bb81858761126b565b979650505050505050565b6000825160005b818110156112e757602081860181015185830152016112cd565b506000920191825250919050565b81810381811115610dfb57634e487b7160e01b600052601160045260246000fd5b62ffffff81168114610a0257600080fd5b60008135610dfb81611316565b60008135610dfb8161100e565b80546001600160a01b0319166001600160a01b0392909216919091179055565b813581556020820135600182015560408201356002820155600381016113a161138c60608501611327565b825462ffffff191662ffffff91909116178255565b6113ce6113b060808501611327565b825465ffffff000000191660189190911b65ffffff00000016178255565b61140d6113dd60a08501611334565b8280546601000000000000600160d01b03191660309290921b6601000000000000600160d01b0316919091179055565b5061142661141d60c08401611334565b60048301611341565b61143e61143560e08401611334565b60058301611341565b610e5f61144e6101008401611334565b60068301611341565b60006020828403121561146957600080fd5b81356110408161131656fea26469706673582212205208085f436acbdfaee3eb9c6f017b2c822491fdc4297239f5d4b23f22f16d9964736f6c63430008140033",
  "devdoc": {
    "details": "Implements minimal proxy pattern for gas-efficient deployment",
    "errors": {
      "FailedDeployment()": [
        {
          "details": "The deployment failed."
        }
      ],
      "InsufficientBalance(uint256,uint256)": [
        {
          "details": "The ETH balance of the account is not enough to perform the operation."
        }
      ],
      "InsufficientDeploymentFee(uint256,uint256)": [
        {
          "params": {
            "provided": "The amount of ETH provided",
            "required": "The required deployment fee"
          }
        }
      ],
      "InvalidInitialization()": [
        {
          "details": "The contract is already initialized."
        }
      ],
      "NotInitializing()": [
        {
          "details": "The contract is not initializing."
        }
      ],
      "OwnableInvalidOwner(address)": [
        {
          "details": "The owner is not a valid owner account. (eg. `address(0)`)"
        }
      ],
      "OwnableUnauthorizedAccount(address)": [
        {
          "details": "The caller account is not authorized to perform an operation."
        }
      ],
      "ReentrancyGuardReentrantCall()": [
        {
          "details": "Unauthorized reentrant call."
        }
      ]
    },
    "events": {
      "BondingCurveSystemDeployed(address,address,address,string,string)": {
        "params": {
          "bondingCurveAddress": "The address of the deployed bonding curve",
          "name": "Token name",
          "owner": "The address that will own both contracts",
          "symbol": "Token symbol",
          "tokenAddress": "The address of the deployed token"
        }
      },
      "DeploymentFeeUpdated(uint256,uint256)": {
        "params": {
          "newFee": "New fee amount",
          "oldFee": "Previous fee amount"
        }
      },
      "FeesWithdrawn(address,uint256)": {
        "params": {
          "amount": "Amount withdrawn",
          "recipient": "Address receiving the fees"
        }
      },
      "Initialized(uint64)": {
        "details": "Triggered when the contract has been initialized or reinitialized."
      }
    },
    "kind": "dev",
    "methods": {
      "acceptOwnership()": {
        "details": "The new owner accepts the ownership transfer."
      },
      "constructor": {
        "details": "Constructor is disabled since this contract is meant to be used behind a proxy"
      },
      "deployBondingCurveSystem(string,string)": {
        "params": {
          "name": "Token name",
          "symbol": "Token symbol"
        },
        "returns": {
          "bondingCurveAddress": "Address of the deployed bonding curve",
          "tokenAddress": "Address of the deployed token contract"
        }
      },
      "getBondingCurveForToken(address)": {
        "params": {
          "token": "The token address to query"
        },
        "returns": {
          "_0": "The associated bonding curve address"
        }
      },
      "getBondingCurveImplementation()": {
        "returns": {
          "_0": "Address of the bonding curve implementation contract"
        }
      },
      "getDeploymentFee()": {
        "returns": {
          "_0": "Current fee amount in wei"
        }
      },
      "getLockContract()": {
        "returns": {
          "_0": "Address of the LP NFT lock contract"
        }
      },
      "getTokenForBondingCurve(address)": {
        "params": {
          "bondingCurve": "The bonding curve address to query"
        },
        "returns": {
          "_0": "The associated token address"
        }
      },
      "getTokenImplementation()": {
        "returns": {
          "_0": "Address of the token implementation contract"
        }
      },
      "initialize(uint256,address,address,address,address,(uint256,uint256,uint256,uint24,uint24,address,address,address,address))": {
        "params": {
          "bondingCurveImpl": "Address of the bonding curve implementation",
          "lockContract": "Address of the LP NFT lock contract",
          "owner": "Address that will own the factory",
          "tokenImpl": "Address of the token implementation"
        }
      },
      "owner()": {
        "details": "Returns the address of the current owner."
      },
      "pendingOwner()": {
        "details": "Returns the address of the pending owner."
      },
      "renounceOwnership()": {
        "details": "Leaves the contract without owner. It will not be possible to call `onlyOwner` functions. Can only be called by the current owner. NOTE: Renouncing ownership will leave the contract without an owner, thereby disabling any functionality that is only available to the owner."
      },
      "transferOwnership(address)": {
        "details": "Starts the ownership transfer of the contract to a new account. Replaces the pending transfer if there is one. Can only be called by the current owner. Setting `newOwner` to the zero address is allowed; this can be used to cancel an initiated ownership transfer."
      },
      "updateDeploymentFee(uint256)": {
        "params": {
          "newFee": "New fee amount in wei"
        }
      },
      "withdrawFees(address)": {
        "params": {
          "recipient": "Address to receive the fees"
        }
      }
    },
    "title": "Factory",
    "version": 1
  },
  "userdoc": {
    "errors": {
      "InitializationFailed()": [
        {
          "notice": "Thrown when initialization fails"
        }
      ],
      "InsufficientDeploymentFee(uint256,uint256)": [
        {
          "notice": "Thrown when deployment fee is insufficient"
        }
      ],
      "InvalidDeploymentParameters()": [
        {
          "notice": "Thrown when deployment parameters are invalid"
        }
      ],
      "RefundFailed()": [
        {
          "notice": "Thrown when deployment extra fees refund fails"
        }
      ],
      "TokenMintingFailed()": [
        {
          "notice": "Thrown when deployment minting fails"
        }
      ],
      "Unauthorized()": [
        {
          "notice": "Thrown when caller is not authorized"
        }
      ],
      "ZeroAddress()": [
        {
          "notice": "Thrown when an address parameter is zero"
        }
      ]
    },
    "events": {
      "BondingCurveSystemDeployed(address,address,address,string,string)": {
        "notice": "Emitted when a new bonding curve system is deployed"
      },
      "DeploymentFeeUpdated(uint256,uint256)": {
        "notice": "Emitted when deployment fee is updated"
      },
      "FeesWithdrawn(address,uint256)": {
        "notice": "Emitted when fees are withdrawn"
      }
    },
    "kind": "user",
    "methods": {
      "deployBondingCurveSystem(string,string)": {
        "notice": "Deploy a complete bonding curve system (token + bonding curve)"
      },
      "getBondingCurveForToken(address)": {
        "notice": "Get the bonding curve address associated with a token"
      },
      "getBondingCurveImplementation()": {
        "notice": "Get the bonding curve implementation address"
      },
      "getDeploymentFee()": {
        "notice": "Get the current deployment fee"
      },
      "getLockContract()": {
        "notice": "Get the LP NFT lock contract address"
      },
      "getTokenForBondingCurve(address)": {
        "notice": "Get the token address associated with a bonding curve"
      },
      "getTokenImplementation()": {
        "notice": "Get the token implementation address"
      },
      "initialize(uint256,address,address,address,address,(uint256,uint256,uint256,uint24,uint24,address,address,address,address))": {
        "notice": "Initialize the factory contract"
      },
      "updateDeploymentFee(uint256)": {
        "notice": "Update the deployment fee"
      },
      "withdrawFees(address)": {
        "notice": "Withdraw collected fees"
      }
    },
    "notice": "Factory contract for deploying bonding curve systems",
    "version": 1
  },
  "storageLayout": {
    "storage": [
      {
        "astId": 9145,
        "contract": "contracts/Factory.sol:Factory",
        "label": "tokenImplementation",
        "offset": 0,
        "slot": "0",
        "type": "t_address"
      },
      {
        "astId": 9147,
        "contract": "contracts/Factory.sol:Factory",
        "label": "bondingCurveImplementation",
        "offset": 0,
        "slot": "1",
        "type": "t_address"
      },
      {
        "astId": 9149,
        "contract": "contracts/Factory.sol:Factory",
        "label": "lockContract",
        "offset": 0,
        "slot": "2",
        "type": "t_address"
      },
      {
        "astId": 9151,
        "contract": "contracts/Factory.sol:Factory",
        "label": "deploymentFee",
        "offset": 0,
        "slot": "3",
        "type": "t_uint256"
      },
      {
        "astId": 9154,
        "contract": "contracts/Factory.sol:Factory",
        "label": "settings",
        "offset": 0,
        "slot": "4",
        "type": "t_struct(BondingCurveSettings)10930_storage"
      },
      {
        "astId": 9158,
        "contract": "contracts/Factory.sol:Factory",
        "label": "tokenToBondingCurve",
        "offset": 0,
        "slot": "11",
        "type": "t_mapping(t_address,t_address)"
      },
      {
        "astId": 9162,
        "contract": "contracts/Factory.sol:Factory",
        "label": "bondingCurveToToken",
        "offset": 0,
        "slot": "12",
        "type": "t_mapping(t_address,t_address)"
      }
    ],
    "types": {
      "t_address": {
        "encoding": "inplace",
        "label": "address",
        "numberOfBytes": "20"
      },
      "t_mapping(t_address,t_address)": {
        "encoding": "mapping",
        "key": "t_address",
        "label": "mapping(address => address)",
        "numberOfBytes": "32",
        "value": "t_address"
      },
      "t_struct(BondingCurveSettings)10930_storage": {
        "encoding": "inplace",
        "label": "struct IFactory.BondingCurveSettings",
        "members": [
          {
            "astId": 10913,
            "contract": "contracts/Factory.sol:Factory",
            "label": "virtualEth",
            "offset": 0,
            "slot": "0",
            "type": "t_uint256"
          },
          {
            "astId": 10915,
            "contract": "contracts/Factory.sol:Factory",
            "label": "bondingTarget",
            "offset": 0,
            "slot": "1",
            "type": "t_uint256"
          },
          {
            "astId": 10917,
            "contract": "contracts/Factory.sol:Factory",
            "label": "minContribution",
            "offset": 0,
            "slot": "2",
            "type": "t_uint256"
          },
          {
            "astId": 10919,
            "contract": "contracts/Factory.sol:Factory",
            "label": "poolFee",
            "offset": 0,
            "slot": "3",
            "type": "t_uint24"
          },
          {
            "astId": 10921,
            "contract": "contracts/Factory.sol:Factory",
            "label": "sellFee",
            "offset": 3,
            "slot": "3",
            "type": "t_uint24"
          },
          {
            "astId": 10923,
            "contract": "contracts/Factory.sol:Factory",
            "label": "uniswapV3Factory",
            "offset": 6,
            "slot": "3",
            "type": "t_address"
          },
          {
            "astId": 10925,
            "contract": "contracts/Factory.sol:Factory",
            "label": "positionManager",
            "offset": 0,
            "slot": "4",
            "type": "t_address"
          },
          {
            "astId": 10927,
            "contract": "contracts/Factory.sol:Factory",
            "label": "weth",
            "offset": 0,
            "slot": "5",
            "type": "t_address"
          },
          {
            "astId": 10929,
            "contract": "contracts/Factory.sol:Factory",
            "label": "feeTo",
            "offset": 0,
            "slot": "6",
            "type": "t_address"
          }
        ],
        "numberOfBytes": "224"
      },
      "t_uint24": {
        "encoding": "inplace",
        "label": "uint24",
        "numberOfBytes": "3"
      },
      "t_uint256": {
        "encoding": "inplace",
        "label": "uint256",
        "numberOfBytes": "32"
      }
    }
  }
}